Component: ARM Compiler 5.06 update 7 (build 960) Tool: armlink [4d3601]

==============================================================================

Section Cross References

    system_stm32f10x.o(i.SetSysClock) refers to system_stm32f10x.o(i.SetSysClockTo72) for SetSysClockTo72
    system_stm32f10x.o(i.SystemCoreClockUpdate) refers to system_stm32f10x.o(.data) for SystemCoreClock
    system_stm32f10x.o(i.SystemInit) refers to system_stm32f10x.o(i.SetSysClock) for SetSysClock
    startup_stm32f10x_md.o(RESET) refers to startup_stm32f10x_md.o(STACK) for __initial_sp
    startup_stm32f10x_md.o(RESET) refers to startup_stm32f10x_md.o(.text) for Reset_Handler
    startup_stm32f10x_md.o(RESET) refers to stm32f10x_it.o(i.NMI_Handler) for NMI_Handler
    startup_stm32f10x_md.o(RESET) refers to stm32f10x_it.o(i.HardFault_Handler) for HardFault_Handler
    startup_stm32f10x_md.o(RESET) refers to stm32f10x_it.o(i.MemManage_Handler) for MemManage_Handler
    startup_stm32f10x_md.o(RESET) refers to stm32f10x_it.o(i.BusFault_Handler) for BusFault_Handler
    startup_stm32f10x_md.o(RESET) refers to stm32f10x_it.o(i.UsageFault_Handler) for UsageFault_Handler
    startup_stm32f10x_md.o(RESET) refers to stm32f10x_it.o(i.SVC_Handler) for SVC_Handler
    startup_stm32f10x_md.o(RESET) refers to stm32f10x_it.o(i.DebugMon_Handler) for DebugMon_Handler
    startup_stm32f10x_md.o(RESET) refers to stm32f10x_it.o(i.PendSV_Handler) for PendSV_Handler
    startup_stm32f10x_md.o(RESET) refers to stm32f10x_it.o(i.SysTick_Handler) for SysTick_Handler
    startup_stm32f10x_md.o(RESET) refers to stm32f10x_it.o(i.TIM3_IRQHandler) for TIM3_IRQHandler
    startup_stm32f10x_md.o(RESET) refers to usart.o(i.USART1_IRQHandler) for USART1_IRQHandler
    startup_stm32f10x_md.o(.text) refers to system_stm32f10x.o(i.SystemInit) for SystemInit
    startup_stm32f10x_md.o(.text) refers to entry.o(.ARM.Collect$$$$00000000) for __main
==============================================================================

Removing Unused input sections from the image.

    Removing core_cm3.o(.emb_text), (32 bytes).
    Removing system_stm32f10x.o(i.SystemCoreClockUpdate), (164 bytes).
    Removing system_stm32f10x.o(.data), (20 bytes).
    Removing startup_stm32f10x_md.o(HEAP), (3072 bytes).
    Removing misc.o(i.NVIC_PriorityGroupConfig), (20 bytes).
    Removing misc.o(i.NVIC_SetVectorTable), (20 bytes).
    Removing misc.o(i.NVIC_SystemLPConfig), (32 bytes).
    Removing misc.o(i.SysTick_CLKSourceConfig), (40 bytes).
    Removing stm32f10x_adc.o(i.ADC_AnalogWatchdogCmd), (20 bytes).
    Removing stm32f10x_adc.o(i.ADC_AnalogWatchdogSingleChannelConfig), (16 bytes).
    Removing stm32f10x_adc.o(i.ADC_AnalogWatchdogThresholdsConfig), (6 bytes).
    Removing stm32f10x_adc.o(i.ADC_AutoInjectedConvCmd), (22 bytes).
    Removing stm32f10x_adc.o(i.ADC_ClearFlag), (6 bytes).
    Removing stm32f10x_adc.o(i.ADC_ClearITPendingBit), (10 bytes).
    Removing stm32f10x_adc.o(i.ADC_Cmd), (22 bytes).
    Removing stm32f10x_adc.o(i.ADC_DMACmd), (22 bytes).
    Removing stm32f10x_adc.o(i.ADC_DeInit), (92 bytes).
    Removing stm32f10x_adc.o(i.ADC_DiscModeChannelCountConfig), (24 bytes).
==============================================================================

Image Symbol Table

    Local Symbols

    Symbol Name                              Value     Ov Type        Size  Object(Section)

    ../clib/microlib/ctype/ctype.c           0x00000000   Number         0  ctype_c.o ABSOLUTE
    ../clib/microlib/ctype/ctype.c           0x00000000   Number         0  isspace_c.o ABSOLUTE
    ../clib/microlib/division.c              0x00000000   Number         0  uldiv.o ABSOLUTE
    ../clib/microlib/division.c              0x00000000   Number         0  uidiv.o ABSOLUTE
    ../clib/microlib/errno.c                 0x00000000   Number         0  errno.o ABSOLUTE
    ../clib/microlib/init/entry.s            0x00000000   Number         0  entry8b.o ABSOLUTE
    ../clib/microlib/init/entry.s            0x00000000   Number         0  entry7b.o ABSOLUTE
    ../clib/microlib/init/entry.s            0x00000000   Number         0  entry10b.o ABSOLUTE
    ../clib/microlib/init/entry.s            0x00000000   Number         0  entry.o ABSOLUTE
    ../clib/microlib/init/entry.s            0x00000000   Number         0  entry8a.o ABSOLUTE
    ../clib/microlib/init/entry.s            0x00000000   Number         0  entry2.o ABSOLUTE
    ../clib/microlib/init/entry.s            0x00000000   Number         0  entry7a.o ABSOLUTE
    ../clib/microlib/init/entry.s            0x00000000   Number         0  entry10a.o ABSOLUTE
    ../clib/microlib/init/entry.s            0x00000000   Number         0  entry9b.o ABSOLUTE
    ../clib/microlib/init/entry.s            0x00000000   Number         0  entry9a.o ABSOLUTE
    ../clib/microlib/init/entry.s            0x00000000   Number         0  entry5.o ABSOLUTE
    ../clib/microlib/init/entry.s            0x00000000   Number         0  entry11a.o ABSOLUTE
    ../clib/microlib/init/entry.s            0x00000000   Number         0  entry12b.o ABSOLUTE
    ../clib/microlib/init/entry.s            0x00000000   Number         0  entry12a.o ABSOLUTE
    ../clib/microlib/init/entry.s            0x00000000   Number         0  entry11b.o ABSOLUTE
    ../clib/microlib/longlong.c              0x00000000   Number         0  llushr.o ABSOLUTE
    ../clib/microlib/longlong.c              0x00000000   Number         0  llsshr.o ABSOLUTE
    ../clib/microlib/longlong.c              0x00000000   Number         0  llshl.o ABSOLUTE
    ../clib/microlib/printf/printf.c         0x00000000   Number         0  printf5.o ABSOLUTE
    ../clib/microlib/printf/printf.c         0x00000000   Number         0  printf0.o ABSOLUTE
    ../clib/microlib/printf/printf.c         0x00000000   Number         0  printf4.o ABSOLUTE
    ../clib/microlib/printf/printf.c         0x00000000   Number         0  printf3.o ABSOLUTE
    ../clib/microlib/printf/printf.c         0x00000000   Number         0  printf8.o ABSOLUTE
    ../clib/microlib/printf/printf.c         0x00000000   Number         0  printfb.o ABSOLUTE
    ../clib/microlib/printf/printf.c         0x00000000   Number         0  printf1.o ABSOLUTE
    ../clib/microlib/printf/printf.c         0x00000000   Number         0  printf7.o ABSOLUTE
    ../clib/microlib/printf/printf.c         0x00000000   Number         0  printfa.o ABSOLUTE
    ../clib/microlib/printf/printf.c         0x00000000   Number         0  printf2.o ABSOLUTE
    ../clib/microlib/printf/printf.c         0x00000000   Number         0  printf6.o ABSOLUTE
    ../clib/microlib/printf/stubs.s          0x00000000   Number         0  stubs.o ABSOLUTE
    ../clib/microlib/stubs.s                 0x00000000   Number         0  iusefp.o ABSOLUTE
    ../clib/microlib/stubs.s                 0x00000000   Number         0  useno.o ABSOLUTE
    ../clib/scanf.c                          0x00000000   Number         0  _sgetc.o ABSOLUTE
    ../clib/scanf.c                          0x00000000   Number         0  strtod.o ABSOLUTE
    ../clib/scanf.c                          0x00000000   Number         0  scanf_fp.o ABSOLUTE
    ../fplib/microlib/d2f.c                  0x00000000   Number         0  d2f.o ABSOLUTE
    ../fplib/microlib/f2d.c                  0x00000000   Number         0  f2d.o ABSOLUTE
    ../fplib/microlib/fpadd.c                0x00000000   Number         0  dadd.o ABSOLUTE
    ../fplib/microlib/fpadd.c                0x00000000   Number         0  fadd.o ABSOLUTE
    ../fplib/microlib/fpdiv.c                0x00000000   Number         0  fdiv.o ABSOLUTE
    ../fplib/microlib/fpdiv.c                0x00000000   Number         0  ddiv.o ABSOLUTE
    ../fplib/microlib/fpepilogue.c           0x00000000   Number         0  depilogue.o ABSOLUTE
    ../fplib/microlib/fpepilogue.c           0x00000000   Number         0  fepilogue.o ABSOLUTE
    ../fplib/microlib/fpfix.c                0x00000000   Number         0  dfixul.o ABSOLUTE
    ../fplib/microlib/fpfix.c                0x00000000   Number         0  ffixui.o ABSOLUTE
    ../fplib/microlib/fpfix.c                0x00000000   Number         0  dfixui.o ABSOLUTE
    ../fplib/microlib/fpfix.c                0x00000000   Number         0  dfixi.o ABSOLUTE
    ../fplib/microlib/fpfix.c                0x00000000   Number         0  ffixi.o ABSOLUTE
    ../fplib/microlib/fpflt.c                0x00000000   Number         0  dfltui.o ABSOLUTE
    ../fplib/microlib/fpflt.c                0x00000000   Number         0  dflti.o ABSOLUTE
    ../fplib/microlib/fpflt.c                0x00000000   Number         0  ffltui.o ABSOLUTE
    ../fplib/microlib/fpflt.c                0x00000000   Number         0  fflti.o ABSOLUTE
    ../fplib/microlib/fpflt.c                0x00000000   Number         0  dfltul.o ABSOLUTE
    ../fplib/microlib/fpmul.c                0x00000000   Number         0  dmul.o ABSOLUTE
    ../fplib/microlib/fpmul.c                0x00000000   Number         0  fmul.o ABSOLUTE
    ../fplib/microlib/fprem.c                0x00000000   Number         0  drem.o ABSOLUTE
    ../fplib/microlib/fpscalb.c              0x00000000   Number         0  dscalb.o ABSOLUTE
    ../mathlib/atan.c                        0x00000000   Number         0  atan.o ABSOLUTE
    ../mathlib/atan.c                        0x00000000   Number         0  atan_x.o ABSOLUTE
    ../mathlib/atan2.c                       0x00000000   Number         0  atan2_x.o ABSOLUTE
    ../mathlib/atan2.c                       0x00000000   Number         0  atan2.o ABSOLUTE
    ../mathlib/atof.c                        0x00000000   Number         0  atof.o ABSOLUTE
    ../mathlib/dunder.c                      0x00000000   Number         0  dunder.o ABSOLUTE
    ../mathlib/fmod.c                        0x00000000   Number         0  fmod_x.o ABSOLUTE
    ../mathlib/fmod.c                        0x00000000   Number         0  fmod.o ABSOLUTE
    ../mathlib/fpclassify.c                  0x00000000   Number         0  fpclassify.o ABSOLUTE
    ../mathlib/poly.c                        0x00000000   Number         0  poly.o ABSOLUTE
    ../mathlib/qnan.c                        0x00000000   Number         0  qnan.o ABSOLUTE
    Hardware\delay.c                         0x00000000   Number         0  delay.o ABSOLUTE
    Hardware\iic.c                           0x00000000   Number         0  iic.o ABSOLUTE
    Hardware\led.c                           0x00000000   Number         0  led.o ABSOLUTE
    Hardware\timer.c                         0x00000000   Number         0  timer.o ABSOLUTE
    Hardware\usart.c                         0x00000000   Number         0  usart.o ABSOLUTE
    SimpleFOC\BLDCMotor.c                    0x00000000   Number         0  bldcmotor.o ABSOLUTE
    SimpleFOC\FOCMotor.c                     0x00000000   Number         0  focmotor.o ABSOLUTE
    SimpleFOC\MagneticSensor.c               0x00000000   Number         0  magneticsensor.o ABSOLUTE
    SimpleFOC\PID.c                          0x00000000   Number         0  pid.o ABSOLUTE
    SimpleFOC\foc_utils.c                    0x00000000   Number         0  foc_utils.o ABSOLUTE
    SimpleFOC\lowpass_filter.c               0x00000000   Number         0  lowpass_filter.o ABSOLUTE
    cdcmple.s                                0x00000000   Number         0  cdcmple.o ABSOLUTE
    cdrcmple.s                               0x00000000   Number         0  cdrcmple.o ABSOLUTE
    cfcmple.s                                0x00000000   Number         0  cfcmple.o ABSOLUTE
    cfrcmple.s                               0x00000000   Number         0  cfrcmple.o ABSOLUTE
    dc.s                                     0x00000000   Number         0  dc.o ABSOLUTE
    handlers.s                               0x00000000   Number         0  handlers.o ABSOLUTE
    init.s                                   0x00000000   Number         0  init.o ABSOLUTE
    lib\src\misc.c                           0x00000000   Number         0  misc.o ABSOLUTE
    lib\src\stm32f10x_adc.c                  0x00000000   Number         0  stm32f10x_adc.o ABSOLUTE
    lib\src\stm32f10x_bkp.c                  0x00000000   Number         0  stm32f10x_bkp.o ABSOLUTE
    lib\src\stm32f10x_can.c                  0x00000000   Number         0  stm32f10x_can.o ABSOLUTE
    lib\src\stm32f10x_cec.c                  0x00000000   Number         0  stm32f10x_cec.o ABSOLUTE
    lib\src\stm32f10x_crc.c                  0x00000000   Number         0  stm32f10x_crc.o ABSOLUTE
    lib\src\stm32f10x_dac.c                  0x00000000   Number         0  stm32f10x_dac.o ABSOLUTE
    lib\src\stm32f10x_dbgmcu.c               0x00000000   Number         0  stm32f10x_dbgmcu.o ABSOLUTE
    lib\src\stm32f10x_dma.c                  0x00000000   Number         0  stm32f10x_dma.o ABSOLUTE
    lib\src\stm32f10x_exti.c                 0x00000000   Number         0  stm32f10x_exti.o ABSOLUTE
    lib\src\stm32f10x_flash.c                0x00000000   Number         0  stm32f10x_flash.o ABSOLUTE
    lib\src\stm32f10x_fsmc.c                 0x00000000   Number         0  stm32f10x_fsmc.o ABSOLUTE
    lib\src\stm32f10x_gpio.c                 0x00000000   Number         0  stm32f10x_gpio.o ABSOLUTE
    lib\src\stm32f10x_i2c.c                  0x00000000   Number         0  stm32f10x_i2c.o ABSOLUTE
    lib\src\stm32f10x_iwdg.c                 0x00000000   Number         0  stm32f10x_iwdg.o ABSOLUTE
    lib\src\stm32f10x_pwr.c                  0x00000000   Number         0  stm32f10x_pwr.o ABSOLUTE
    lib\src\stm32f10x_rcc.c                  0x00000000   Number         0  stm32f10x_rcc.o ABSOLUTE
    lib\src\stm32f10x_rtc.c                  0x00000000   Number         0  stm32f10x_rtc.o ABSOLUTE
    lib\src\stm32f10x_sdio.c                 0x00000000   Number         0  stm32f10x_sdio.o ABSOLUTE
    lib\src\stm32f10x_spi.c                  0x00000000   Number         0  stm32f10x_spi.o ABSOLUTE
    lib\src\stm32f10x_tim.c                  0x00000000   Number         0  stm32f10x_tim.o ABSOLUTE
    lib\src\stm32f10x_usart.c                0x00000000   Number         0  stm32f10x_usart.o ABSOLUTE
    lib\src\stm32f10x_wwdg.c                 0x00000000   Number         0  stm32f10x_wwdg.o ABSOLUTE
    startup\\core_cm3.c                      0x00000000   Number         0  core_cm3.o ABSOLUTE
    startup\core_cm3.c                       0x00000000   Number         0  core_cm3.o ABSOLUTE
    startup\startup_stm32f10x_md.s           0x00000000   Number         0  startup_stm32f10x_md.o ABSOLUTE
    startup\system_stm32f10x.c               0x00000000   Number         0  system_stm32f10x.o ABSOLUTE
    user\main.c                              0x00000000   Number         0  main.o ABSOLUTE
    user\stm32f10x_it.c                      0x00000000   Number         0  stm32f10x_it.o ABSOLUTE
    RESET                                    0x08000000   Section      236  startup_stm32f10x_md.o(RESET)
    .ARM.Collect$$$$00000000                 0x080000ec   Section        0  entry.o(.ARM.Collect$$$$00000000)
    .ARM.Collect$$$$00000001                 0x080000ec   Section        4  entry2.o(.ARM.Collect$$$$00000001)
    .ARM.Collect$$$$00000004                 0x080000f0   Section        4  entry5.o(.ARM.Collect$$$$00000004)
    .ARM.Collect$$$$00000008                 0x080000f4   Section        0  entry7b.o(.ARM.Collect$$$$00000008)
    .ARM.Collect$$$$0000000A                 0x080000f4   Section        0  entry8b.o(.ARM.Collect$$$$0000000A)
    .ARM.Collect$$$$0000000B                 0x080000f4   Section        8  entry9a.o(.ARM.Collect$$$$0000000B)
    .ARM.Collect$$$$0000000E                 0x080000fc   Section        4  entry12b.o(.ARM.Collect$$$$0000000E)
    .ARM.Collect$$$$0000000F                 0x08000100   Section        0  entry10a.o(.ARM.Collect$$$$0000000F)
    .ARM.Collect$$$$00000011                 0x08000100   Section        0  entry11a.o(.ARM.Collect$$$$00000011)
    .ARM.Collect$$$$00002712                 0x08000100   Section        4  entry2.o(.ARM.Collect$$$$00002712)
    __lit__00000000                          0x08000100   Data           4  entry2.o(.ARM.Collect$$$$00002712)
    .text                                    0x08000104   Section       36  startup_stm32f10x_md.o(.text)
    .text                                    0x08000128   Section        0  fadd.o(.text)
    .text                                    0x080001d8   Section        0  fmul.o(.text)
    .text                                    0x0800023c   Section        0  fdiv.o(.text)
    .text                                    0x080002b8   Section        0  dadd.o(.text)
    .text                                    0x08000406   Section        0  dmul.o(.text)
    .text                                    0x080004ea   Section        0  ddiv.o(.text)
    .text                                    0x080005c8   Section        0  fflti.o(.text)
    .text                                    0x080005da   Section        0  ffltui.o(.text)
    .text                                    0x080005e4   Section        0  dflti.o(.text)
    .text                                    0x08000606   Section        0  dfltui.o(.text)
    .text                                    0x08000620   Section        0  ffixi.o(.text)
    .text                                    0x08000652   Section        0  ffixui.o(.text)
    .text                                    0x0800067a   Section        0  dfixi.o(.text)
    .text                                    0x080006b8   Section        0  dfixui.o(.text)
    .text                                    0x080006ea   Section        0  f2d.o(.text)
    .text                                    0x08000710   Section       48  cdcmple.o(.text)
    .text                                    0x08000740   Section       48  cdrcmple.o(.text)
    .text                                    0x08000770   Section        0  d2f.o(.text)
    .text                                    0x080007a8   Section       20  cfcmple.o(.text)
    .text                                    0x080007bc   Section       20  cfrcmple.o(.text)
    .text                                    0x080007d0   Section        0  uidiv.o(.text)
    .text                                    0x080007fc   Section        0  uldiv.o(.text)
    .text                                    0x0800085e   Section        0  llshl.o(.text)
    .text                                    0x0800087c   Section        0  llushr.o(.text)
    .text                                    0x0800089c   Section        0  llsshr.o(.text)
    .text                                    0x080008c0   Section        0  strtod.o(.text)
    _local_sscanf                            0x080008c1   Thumb Code    54  strtod.o(.text)
    .text                                    0x0800095c   Section        0  fepilogue.o(.text)
    .text                                    0x0800095c   Section        0  iusefp.o(.text)
    .text                                    0x080009ca   Section        0  depilogue.o(.text)
    .text                                    0x08000a84   Section        0  drem.o(.text)
    .text                                    0x08000b0a   Section        0  dfixul.o(.text)
    .text                                    0x08000b3c   Section       36  init.o(.text)
    .text                                    0x08000b60   Section        0  isspace_c.o(.text)
    .text                                    0x08000b6c   Section        0  scanf_fp.o(.text)
    _fp_value                                0x08000b6d   Thumb Code   296  scanf_fp.o(.text)
    .text                                    0x08000ecc   Section        0  _sgetc.o(.text)
    .text                                    0x08000f0c   Section        0  dscalb.o(.text)
    .text                                    0x08000f3c   Section        0  ctype_c.o(.text)
    .text                                    0x08000f64   Section        0  dfltul.o(.text)
    i.BusFault_Handler                       0x08000f7c   Section        0  stm32f10x_it.o(i.BusFault_Handler)
    i.DRV8313_EN_Init                        0x08000f80   Section        0  bldcmotor.o(i.DRV8313_EN_Init)
    DRV8313_EN_Init                          0x08000f81   Thumb Code    58  bldcmotor.o(i.DRV8313_EN_Init)
    i.DebugMon_Handler                       0x08000fc4   Section        0  stm32f10x_it.o(i.DebugMon_Handler)
    i.GPIO_Init                              0x08000fc6   Section        0  stm32f10x_gpio.o(i.GPIO_Init)
    i.GPIO_PinRemapConfig                    0x080010dc   Section        0  stm32f10x_gpio.o(i.GPIO_PinRemapConfig)
    i.GPIO_ResetBits                         0x0800116c   Section        0  stm32f10x_gpio.o(i.GPIO_ResetBits)
    i.GPIO_SetBits                           0x08001170   Section        0  stm32f10x_gpio.o(i.GPIO_SetBits)
    i.HardFault_Handler                      0x08001174   Section        0  stm32f10x_it.o(i.HardFault_Handler)
    i.I2C_Cmd                                0x08001178   Section        0  stm32f10x_i2c.o(i.I2C_Cmd)
    i.I2C_DeInit                             0x08001190   Section        0  stm32f10x_i2c.o(i.I2C_DeInit)
    i.I2C_GenerateSTOP                       0x080011c8   Section        0  stm32f10x_i2c.o(i.I2C_GenerateSTOP)
    i.I2C_Init                               0x080011e0   Section        0  stm32f10x_i2c.o(i.I2C_Init)
    i.I2C_Init_                              0x080012cc   Section        0  iic.o(i.I2C_Init_)
    i.I2C_getRawCount                        0x08001348   Section        0  magneticsensor.o(i.I2C_getRawCount)
    i.LED_Init                               0x08001448   Section        0  led.o(i.LED_Init)
    i.LPF_velocity                           0x0800147c   Section        0  lowpass_filter.o(i.LPF_velocity)
    i.MagneticSensor_Init                    0x080014dc   Section        0  magneticsensor.o(i.MagneticSensor_Init)
    i.MemManage_Handler                      0x08001510   Section        0  stm32f10x_it.o(i.MemManage_Handler)
    i.Motor_init                             0x08001514   Section        0  bldcmotor.o(i.Motor_init)
    i.Motor_initFOC                          0x08001588   Section        0  bldcmotor.o(i.Motor_initFOC)
    i.NMI_Handler                            0x080015dc   Section        0  stm32f10x_it.o(i.NMI_Handler)
    i.NVIC_Init                              0x080015e0   Section        0  misc.o(i.NVIC_Init)
    i.PID_angle                              0x08001650   Section        0  pid.o(i.PID_angle)
    i.PID_init                               0x08001740   Section        0  pid.o(i.PID_init)
    i.PID_velocity                           0x08001794   Section        0  pid.o(i.PID_velocity)
    i.PendSV_Handler                         0x08001950   Section        0  stm32f10x_it.o(i.PendSV_Handler)
    i.RCC_APB1PeriphClockCmd                 0x08001954   Section        0  stm32f10x_rcc.o(i.RCC_APB1PeriphClockCmd)
    i.RCC_APB1PeriphResetCmd                 0x08001974   Section        0  stm32f10x_rcc.o(i.RCC_APB1PeriphResetCmd)
    i.RCC_APB2PeriphClockCmd                 0x08001994   Section        0  stm32f10x_rcc.o(i.RCC_APB2PeriphClockCmd)
    i.RCC_APB2PeriphResetCmd                 0x080019b4   Section        0  stm32f10x_rcc.o(i.RCC_APB2PeriphResetCmd)
    i.RCC_GetClocksFreq                      0x080019d4   Section        0  stm32f10x_rcc.o(i.RCC_GetClocksFreq)
    i.SVC_Handler                            0x08001aa8   Section        0  stm32f10x_it.o(i.SVC_Handler)
    i.SetSysClock                            0x08001aaa   Section        0  system_stm32f10x.o(i.SetSysClock)
    SetSysClock                              0x08001aab   Thumb Code     8  system_stm32f10x.o(i.SetSysClock)
    i.SetSysClockTo72                        0x08001ab4   Section        0  system_stm32f10x.o(i.SetSysClockTo72)
    SetSysClockTo72                          0x08001ab5   Thumb Code   214  system_stm32f10x.o(i.SetSysClockTo72)
    i.SysTick_Handler                        0x08001b94   Section        0  stm32f10x_it.o(i.SysTick_Handler)
    i.SystemInit                             0x08001b98   Section        0  system_stm32f10x.o(i.SystemInit)
    i.TIM2_PWM_Init                          0x08001bf8   Section        0  timer.o(i.TIM2_PWM_Init)
    i.TIM3_1ms_Init                          0x08001cb8   Section        0  timer.o(i.TIM3_1ms_Init)
    i.TIM3_IRQHandler                        0x08001d0c   Section        0  stm32f10x_it.o(i.TIM3_IRQHandler)
    i.TIM_ARRPreloadConfig                   0x08001d44   Section        0  stm32f10x_tim.o(i.TIM_ARRPreloadConfig)
    i.TIM_ClearITPendingBit                  0x08001d5c   Section        0  stm32f10x_tim.o(i.TIM_ClearITPendingBit)
    i.TIM_Cmd                                0x08001d62   Section        0  stm32f10x_tim.o(i.TIM_Cmd)
    i.TIM_DeInit                             0x08001d7c   Section        0  stm32f10x_tim.o(i.TIM_DeInit)
    i.TIM_GetITStatus                        0x08001f64   Section        0  stm32f10x_tim.o(i.TIM_GetITStatus)
    i.TIM_ITConfig                           0x08001f86   Section        0  stm32f10x_tim.o(i.TIM_ITConfig)
    i.TIM_OC1Init                            0x08001f98   Section        0  stm32f10x_tim.o(i.TIM_OC1Init)
    i.TIM_OC1PreloadConfig                   0x08002030   Section        0  stm32f10x_tim.o(i.TIM_OC1PreloadConfig)
    i.TIM_OC2Init                            0x08002044   Section        0  stm32f10x_tim.o(i.TIM_OC2Init)
    i.TIM_OC2PreloadConfig                   0x080020e8   Section        0  stm32f10x_tim.o(i.TIM_OC2PreloadConfig)
    i.TIM_OC3Init                            0x08002104   Section        0  stm32f10x_tim.o(i.TIM_OC3Init)
    i.TIM_OC3PreloadConfig                   0x080021a4   Section        0  stm32f10x_tim.o(i.TIM_OC3PreloadConfig)
    i.TIM_SetCompare1                        0x080021b6   Section        0  stm32f10x_tim.o(i.TIM_SetCompare1)
    i.TIM_SetCompare2                        0x080021ba   Section        0  stm32f10x_tim.o(i.TIM_SetCompare2)
    i.TIM_SetCompare3                        0x080021be   Section        0  stm32f10x_tim.o(i.TIM_SetCompare3)
    i.TIM_TimeBaseInit                       0x080021c4   Section        0  stm32f10x_tim.o(i.TIM_TimeBaseInit)
    i.USART1_IRQHandler                      0x08002268   Section        0  usart.o(i.USART1_IRQHandler)
    i.USART_Cmd                              0x080022fc   Section        0  stm32f10x_usart.o(i.USART_Cmd)
    i.USART_GetITStatus                      0x08002314   Section        0  stm32f10x_usart.o(i.USART_GetITStatus)
    i.USART_ITConfig                         0x08002368   Section        0  stm32f10x_usart.o(i.USART_ITConfig)
    i.USART_Init                             0x080023b4   Section        0  stm32f10x_usart.o(i.USART_Init)
    i.USART_ReceiveData                      0x0800248c   Section        0  stm32f10x_usart.o(i.USART_ReceiveData)
    i.UsageFault_Handler                     0x08002496   Section        0  stm32f10x_it.o(i.UsageFault_Handler)
    i.Voltage_Init                           0x0800249c   Section        0  bldcmotor.o(i.Voltage_Init)
    i.__0printf                              0x080024bc   Section        0  printfa.o(i.__0printf)
    i.__ARM_fpclassify                       0x080024dc   Section        0  fpclassify.o(i.__ARM_fpclassify)
    i.__kernel_poly                          0x08002504   Section        0  poly.o(i.__kernel_poly)
    i.__mathlib_dbl_infnan                   0x080025ae   Section        0  dunder.o(i.__mathlib_dbl_infnan)
    i.__mathlib_dbl_infnan2                  0x080025b4   Section        0  dunder.o(i.__mathlib_dbl_infnan2)
    i.__mathlib_dbl_invalid                  0x080025b8   Section        0  dunder.o(i.__mathlib_dbl_invalid)
    i.__mathlib_dbl_underflow                0x080025c4   Section        0  dunder.o(i.__mathlib_dbl_underflow)
    i.__read_errno                           0x080025d4   Section        0  errno.o(i.__read_errno)
    i.__scatterload_copy                     0x080025e0   Section       14  handlers.o(i.__scatterload_copy)
    i.__scatterload_null                     0x080025ee   Section        2  handlers.o(i.__scatterload_null)
    i.__scatterload_zeroinit                 0x080025f0   Section       14  handlers.o(i.__scatterload_zeroinit)
    i.__set_errno                            0x08002600   Section        0  errno.o(i.__set_errno)
    i._electricalAngle                       0x0800260c   Section        0  foc_utils.o(i._electricalAngle)
    i._fp_digits                             0x08002624   Section        0  printfa.o(i._fp_digits)
    _fp_digits                               0x08002625   Thumb Code   366  printfa.o(i._fp_digits)
    i._is_digit                              0x080027a8   Section        0  scanf_fp.o(i._is_digit)
    i._normalizeAngle                        0x080027b8   Section        0  foc_utils.o(i._normalizeAngle)
    i._printf_core                           0x0800280c   Section        0  printfa.o(i._printf_core)
    _printf_core                             0x0800280d   Thumb Code  1704  printfa.o(i._printf_core)
    i._printf_post_padding                   0x08002ec0   Section        0  printfa.o(i._printf_post_padding)
    _printf_post_padding                     0x08002ec1   Thumb Code    36  printfa.o(i._printf_post_padding)
    i._printf_pre_padding                    0x08002ee4   Section        0  printfa.o(i._printf_pre_padding)
    _printf_pre_padding                      0x08002ee5   Thumb Code    46  printfa.o(i._printf_pre_padding)
    i._sin                                   0x08002f14   Section        0  foc_utils.o(i._sin)
    i._sqrtApprox                            0x080031ac   Section        0  foc_utils.o(i._sqrtApprox)
    i.alignSensor                            0x080031cc   Section        0  bldcmotor.o(i.alignSensor)
    i.angleOpenloop                          0x0800350c   Section        0  bldcmotor.o(i.angleOpenloop)
    i.atan                                   0x08003684   Section        0  atan.o(i.atan)
    i.atan2                                  0x080038a4   Section        0  atan2.o(i.atan2)
    i.atof                                   0x08003a40   Section        0  atof.o(i.atof)
    i.commander_run                          0x08003a6c   Section        0  main.o(i.commander_run)
    i.delay_ms                               0x08003b24   Section        0  delay.o(i.delay_ms)
    i.electricalAngle                        0x08003b6c   Section        0  focmotor.o(i.electricalAngle)
    i.fmod                                   0x08003bb4   Section        0  fmod.o(i.fmod)
    i.fputc                                  0x08003c48   Section        0  usart.o(i.fputc)
    i.getAngle                               0x08003c64   Section        0  magneticsensor.o(i.getAngle)
    i.getVelocity                            0x08003d60   Section        0  magneticsensor.o(i.getVelocity)
    i.loopFOC                                0x08003e30   Section        0  bldcmotor.o(i.loopFOC)
    i.main                                   0x08003ec0   Section        0  main.o(i.main)
    i.move                                   0x08003fb0   Section        0  bldcmotor.o(i.move)
    i.setPhaseVoltage                        0x080040a4   Section        0  bldcmotor.o(i.setPhaseVoltage)
    i.shaftAngle                             0x080044d0   Section        0  focmotor.o(i.shaftAngle)
    i.shaftVelocity                          0x08004500   Section        0  focmotor.o(i.shaftVelocity)
    i.systick_CountMode                      0x08004528   Section        0  delay.o(i.systick_CountMode)
    i.uart_init                              0x08004540   Section        0  usart.o(i.uart_init)
    i.velocityOpenloop                       0x080045e0   Section        0  bldcmotor.o(i.velocityOpenloop)
    .constdata                               0x080046d8   Section      800  foc_utils.o(.constdata)
    .constdata                               0x080049f8   Section      152  atan.o(.constdata)
    atanhi                                   0x080049f8   Data          32  atan.o(.constdata)
    atanlo                                   0x08004a18   Data          32  atan.o(.constdata)
    aTodd                                    0x08004a38   Data          40  atan.o(.constdata)
    aTeven                                   0x08004a60   Data          48  atan.o(.constdata)
    .constdata                               0x08004a90   Section        8  qnan.o(.constdata)
    .constdata                               0x08004a98   Section       64  ctype_c.o(.constdata)
    .data                                    0x20000000   Section       20  stm32f10x_rcc.o(.data)
    APBAHBPrescTable                         0x20000000   Data          16  stm32f10x_rcc.o(.data)
    ADCPrescTable                            0x20000010   Data           4  stm32f10x_rcc.o(.data)
    .data                                    0x20000014   Section        6  usart.o(.data)
    .data                                    0x2000001c   Section       36  focmotor.o(.data)
    .data                                    0x20000040   Section       16  bldcmotor.o(.data)
    .data                                    0x20000050   Section        4  lowpass_filter.o(.data)
    .data                                    0x20000054   Section       20  magneticsensor.o(.data)
    .data                                    0x20000068   Section        4  main.o(.data)
    .data                                    0x2000006c   Section        8  stm32f10x_it.o(.data)
    .data                                    0x20000074   Section        4  errno.o(.data)
    _errno                                   0x20000074   Data           4  errno.o(.data)
    .bss                                     0x20000078   Section      256  usart.o(.bss)
    .bss                                     0x20000178   Section       16  focmotor.o(.bss)
    .bss                                     0x20000188   Section       12  bldcmotor.o(.bss)
    .bss                                     0x20000194   Section       88  pid.o(.bss)
    STACK                                    0x200001f0   Section     1024  startup_stm32f10x_md.o(STACK)

    Global Symbols

    Symbol Name                              Value     Ov Type        Size  Object(Section)

    BuildAttributes$$THM_ISAv4$P$D$K$B$S$PE$A:L22UL41UL21$X:L11$S22US41US21$IEEE1$IW$USESV6$~STKCKD$USESV7$~SHL$OTIME$ROPI$IEEEX$EBA8$MICROLIB$REQ8$PRES8$EABIv2 0x00000000   Number         0  anon$$obj.o ABSOLUTE
    __ARM_use_no_argv                        0x00000000   Number         0  main.o ABSOLUTE
    __use_no_errno                           0x00000000   Number         0  useno.o ABSOLUTE
    __use_no_exception_handling              0x00000000   Number         0  useno.o ABSOLUTE
    __use_no_fp                              0x00000000   Number         0  useno.o ABSOLUTE
    __use_no_heap                            0x00000000   Number         0  useno.o ABSOLUTE
    __use_no_heap_region                     0x00000000   Number         0  useno.o ABSOLUTE
    __use_no_semihosting                     0x00000000   Number         0  useno.o ABSOLUTE
    __use_no_semihosting_swi                 0x00000000   Number         0  useno.o ABSOLUTE
    __use_no_signal_handling                 0x00000000   Number         0  useno.o ABSOLUTE
    _printf_a                                0x00000000   Number         0  stubs.o ABSOLUTE
    _printf_c                                0x00000000   Number         0  stubs.o ABSOLUTE
    _printf_charcount                        0x00000000   Number         0  stubs.o ABSOLUTE
    _printf_d                                0x00000000   Number         0  stubs.o ABSOLUTE
    _printf_e                                0x00000000   Number         0  stubs.o ABSOLUTE
    _printf_f                                0x00000000   Number         0  stubs.o ABSOLUTE
    _printf_flags                            0x00000000   Number         0  stubs.o ABSOLUTE
    _printf_fp_dec                           0x00000000   Number         0  stubs.o ABSOLUTE
    _printf_fp_hex                           0x00000000   Number         0  stubs.o ABSOLUTE
    _printf_g                                0x00000000   Number         0  stubs.o ABSOLUTE
    _printf_i                                0x00000000   Number         0  stubs.o ABSOLUTE
    _printf_int_dec                          0x00000000   Number         0  stubs.o ABSOLUTE
    _printf_l                                0x00000000   Number         0  stubs.o ABSOLUTE
    _printf_lc                               0x00000000   Number         0  stubs.o ABSOLUTE
    _printf_ll                               0x00000000   Number         0  stubs.o ABSOLUTE
    _printf_lld                              0x00000000   Number         0  stubs.o ABSOLUTE
    _printf_lli                              0x00000000   Number         0  stubs.o ABSOLUTE
    _printf_llo                              0x00000000   Number         0  stubs.o ABSOLUTE
    _printf_llu                              0x00000000   Number         0  stubs.o ABSOLUTE
    _printf_llx                              0x00000000   Number         0  stubs.o ABSOLUTE
    _printf_longlong_dec                     0x00000000   Number         0  stubs.o ABSOLUTE
    _printf_longlong_hex                     0x00000000   Number         0  stubs.o ABSOLUTE
    _printf_longlong_oct                     0x00000000   Number         0  stubs.o ABSOLUTE
    _printf_ls                               0x00000000   Number         0  stubs.o ABSOLUTE
    _printf_mbtowc                           0x00000000   Number         0  stubs.o ABSOLUTE
    _printf_n                                0x00000000   Number         0  stubs.o ABSOLUTE
    _printf_o                                0x00000000   Number         0  stubs.o ABSOLUTE
    _printf_p                                0x00000000   Number         0  stubs.o ABSOLUTE
    _printf_percent                          0x00000000   Number         0  stubs.o ABSOLUTE
    _printf_pre_padding                      0x00000000   Number         0  stubs.o ABSOLUTE
    _printf_return_value                     0x00000000   Number         0  stubs.o ABSOLUTE
    _printf_s                                0x00000000   Number         0  stubs.o ABSOLUTE
    _printf_sizespec                         0x00000000   Number         0  stubs.o ABSOLUTE
    _printf_str                              0x00000000   Number         0  stubs.o ABSOLUTE
    _printf_truncate_signed                  0x00000000   Number         0  stubs.o ABSOLUTE
    _printf_truncate_unsigned                0x00000000   Number         0  stubs.o ABSOLUTE
    _printf_u                                0x00000000   Number         0  stubs.o ABSOLUTE
    _printf_wc                               0x00000000   Number         0  stubs.o ABSOLUTE
    _printf_wctomb                           0x00000000   Number         0  stubs.o ABSOLUTE
    _printf_widthprec                        0x00000000   Number         0  stubs.o ABSOLUTE
    _printf_x                                0x00000000   Number         0  stubs.o ABSOLUTE
    __arm_fini_                               - Undefined Weak Reference
    __cpp_initialize__aeabi_                  - Undefined Weak Reference
    __cxa_finalize                            - Undefined Weak Reference
    __decompress                              - Undefined Weak Reference
    _clock_init                               - Undefined Weak Reference
    _microlib_exit                            - Undefined Weak Reference
    __Vectors_Size                           0x000000ec   Number         0  startup_stm32f10x_md.o ABSOLUTE
    __Vectors                                0x08000000   Data           4  startup_stm32f10x_md.o(RESET)
    __Vectors_End                            0x080000ec   Data           0  startup_stm32f10x_md.o(RESET)
    __main                                   0x080000ed   Thumb Code     0  entry.o(.ARM.Collect$$$$00000000)
    _main_stk                                0x080000ed   Thumb Code     0  entry2.o(.ARM.Collect$$$$00000001)
    _main_scatterload                        0x080000f1   Thumb Code     0  entry5.o(.ARM.Collect$$$$00000004)
    __main_after_scatterload                 0x080000f5   Thumb Code     0  entry5.o(.ARM.Collect$$$$00000004)
    _main_clock                              0x080000f5   Thumb Code     0  entry7b.o(.ARM.Collect$$$$00000008)
    _main_cpp_init                           0x080000f5   Thumb Code     0  entry8b.o(.ARM.Collect$$$$0000000A)
    _main_init                               0x080000f5   Thumb Code     0  entry9a.o(.ARM.Collect$$$$0000000B)
    __rt_lib_shutdown_fini                   0x080000fd   Thumb Code     0  entry12b.o(.ARM.Collect$$$$0000000E)
    __rt_final_cpp                           0x08000101   Thumb Code     0  entry10a.o(.ARM.Collect$$$$0000000F)
    __rt_final_exit                          0x08000101   Thumb Code     0  entry11a.o(.ARM.Collect$$$$00000011)
    Reset_Handler                            0x08000105   Thumb Code     8  startup_stm32f10x_md.o(.text)
    ADC1_2_IRQHandler                        0x0800011f   Thumb Code     0  startup_stm32f10x_md.o(.text)
    CAN1_RX1_IRQHandler                      0x0800011f   Thumb Code     0  startup_stm32f10x_md.o(.text)
    CAN1_SCE_IRQHandler                      0x0800011f   Thumb Code     0  startup_stm32f10x_md.o(.text)
    DMA1_Channel1_IRQHandler                 0x0800011f   Thumb Code     0  startup_stm32f10x_md.o(.text)
    DMA1_Channel2_IRQHandler                 0x0800011f   Thumb Code     0  startup_stm32f10x_md.o(.text)
    DMA1_Channel3_IRQHandler                 0x0800011f   Thumb Code     0  startup_stm32f10x_md.o(.text)
    DMA1_Channel4_IRQHandler                 0x0800011f   Thumb Code     0  startup_stm32f10x_md.o(.text)
    DMA1_Channel5_IRQHandler                 0x0800011f   Thumb Code     0  startup_stm32f10x_md.o(.text)
    DMA1_Channel6_IRQHandler                 0x0800011f   Thumb Code     0  startup_stm32f10x_md.o(.text)
    DMA1_Channel7_IRQHandler                 0x0800011f   Thumb Code     0  startup_stm32f10x_md.o(.text)
    EXTI0_IRQHandler                         0x0800011f   Thumb Code     0  startup_stm32f10x_md.o(.text)
    EXTI15_10_IRQHandler                     0x0800011f   Thumb Code     0  startup_stm32f10x_md.o(.text)
    EXTI1_IRQHandler                         0x0800011f   Thumb Code     0  startup_stm32f10x_md.o(.text)
    EXTI2_IRQHandler                         0x0800011f   Thumb Code     0  startup_stm32f10x_md.o(.text)
    EXTI3_IRQHandler                         0x0800011f   Thumb Code     0  startup_stm32f10x_md.o(.text)
    EXTI4_IRQHandler                         0x0800011f   Thumb Code     0  startup_stm32f10x_md.o(.text)
    EXTI9_5_IRQHandler                       0x0800011f   Thumb Code     0  startup_stm32f10x_md.o(.text)
    FLASH_IRQHandler                         0x0800011f   Thumb Code     0  startup_stm32f10x_md.o(.text)
    I2C1_ER_IRQHandler                       0x0800011f   Thumb Code     0  startup_stm32f10x_md.o(.text)
    I2C1_EV_IRQHandler                       0x0800011f   Thumb Code     0  startup_stm32f10x_md.o(.text)
    I2C2_ER_IRQHandler                       0x0800011f   Thumb Code     0  startup_stm32f10x_md.o(.text)
    I2C2_EV_IRQHandler                       0x0800011f   Thumb Code     0  startup_stm32f10x_md.o(.text)
    PVD_IRQHandler                           0x0800011f   Thumb Code     0  startup_stm32f10x_md.o(.text)
    RCC_IRQHandler                           0x0800011f   Thumb Code     0  startup_stm32f10x_md.o(.text)
    RTCAlarm_IRQHandler                      0x0800011f   Thumb Code     0  startup_stm32f10x_md.o(.text)
    RTC_IRQHandler                           0x0800011f   Thumb Code     0  startup_stm32f10x_md.o(.text)
    SPI1_IRQHandler                          0x0800011f   Thumb Code     0  startup_stm32f10x_md.o(.text)
    SPI2_IRQHandler                          0x0800011f   Thumb Code     0  startup_stm32f10x_md.o(.text)
    TAMPER_IRQHandler                        0x0800011f   Thumb Code     0  startup_stm32f10x_md.o(.text)
    TIM1_BRK_IRQHandler                      0x0800011f   Thumb Code     0  startup_stm32f10x_md.o(.text)
    TIM1_CC_IRQHandler                       0x0800011f   Thumb Code     0  startup_stm32f10x_md.o(.text)
    TIM1_TRG_COM_IRQHandler                  0x0800011f   Thumb Code     0  startup_stm32f10x_md.o(.text)
    TIM1_UP_IRQHandler                       0x0800011f   Thumb Code     0  startup_stm32f10x_md.o(.text)
    TIM2_IRQHandler                          0x0800011f   Thumb Code     0  startup_stm32f10x_md.o(.text)
    TIM4_IRQHandler                          0x0800011f   Thumb Code     0  startup_stm32f10x_md.o(.text)
    USART2_IRQHandler                        0x0800011f   Thumb Code     0  startup_stm32f10x_md.o(.text)
    USART3_IRQHandler                        0x0800011f   Thumb Code     0  startup_stm32f10x_md.o(.text)
    USBWakeUp_IRQHandler                     0x0800011f   Thumb Code     0  startup_stm32f10x_md.o(.text)
    USB_HP_CAN1_TX_IRQHandler                0x0800011f   Thumb Code     0  startup_stm32f10x_md.o(.text)
    USB_LP_CAN1_RX0_IRQHandler               0x0800011f   Thumb Code     0  startup_stm32f10x_md.o(.text)
    WWDG_IRQHandler                          0x0800011f   Thumb Code     0  startup_stm32f10x_md.o(.text)
    __aeabi_fadd                             0x08000129   Thumb Code   164  fadd.o(.text)
    __aeabi_fsub                             0x080001cd   Thumb Code     6  fadd.o(.text)
    __aeabi_frsub                            0x080001d3   Thumb Code     6  fadd.o(.text)
    __aeabi_fmul                             0x080001d9   Thumb Code   100  fmul.o(.text)
    __aeabi_fdiv                             0x0800023d   Thumb Code   124  fdiv.o(.text)
    __aeabi_dadd                             0x080002b9   Thumb Code   322  dadd.o(.text)
    __aeabi_dsub                             0x080003fb   Thumb Code     6  dadd.o(.text)
    __aeabi_drsub                            0x08000401   Thumb Code     6  dadd.o(.text)
    __aeabi_dmul                             0x08000407   Thumb Code   228  dmul.o(.text)
    __aeabi_ddiv                             0x080004eb   Thumb Code   222  ddiv.o(.text)
    __aeabi_i2f                              0x080005c9   Thumb Code    18  fflti.o(.text)
    __aeabi_ui2f                             0x080005db   Thumb Code    10  ffltui.o(.text)
    __aeabi_i2d                              0x080005e5   Thumb Code    34  dflti.o(.text)
    __aeabi_ui2d                             0x08000607   Thumb Code    26  dfltui.o(.text)
    __aeabi_f2iz                             0x08000621   Thumb Code    50  ffixi.o(.text)
    __aeabi_f2uiz                            0x08000653   Thumb Code    40  ffixui.o(.text)
    __aeabi_d2iz                             0x0800067b   Thumb Code    62  dfixi.o(.text)
    __aeabi_d2uiz                            0x080006b9   Thumb Code    50  dfixui.o(.text)
    __aeabi_f2d                              0x080006eb   Thumb Code    38  f2d.o(.text)
    __aeabi_cdcmpeq                          0x08000711   Thumb Code     0  cdcmple.o(.text)
    __aeabi_cdcmple                          0x08000711   Thumb Code    48  cdcmple.o(.text)
    __aeabi_cdrcmple                         0x08000741   Thumb Code    48  cdrcmple.o(.text)
    __aeabi_d2f                              0x08000771   Thumb Code    56  d2f.o(.text)
    __aeabi_cfcmpeq                          0x080007a9   Thumb Code     0  cfcmple.o(.text)
    __aeabi_cfcmple                          0x080007a9   Thumb Code    20  cfcmple.o(.text)
    __aeabi_cfrcmple                         0x080007bd   Thumb Code    20  cfrcmple.o(.text)
    __aeabi_uidiv                            0x080007d1   Thumb Code     0  uidiv.o(.text)
    __aeabi_uidivmod                         0x080007d1   Thumb Code    44  uidiv.o(.text)
    __aeabi_uldivmod                         0x080007fd   Thumb Code    98  uldiv.o(.text)
    __aeabi_llsl                             0x0800085f   Thumb Code    30  llshl.o(.text)
    _ll_shift_l                              0x0800085f   Thumb Code     0  llshl.o(.text)
    __aeabi_llsr                             0x0800087d   Thumb Code    32  llushr.o(.text)
    _ll_ushift_r                             0x0800087d   Thumb Code     0  llushr.o(.text)
    __aeabi_lasr                             0x0800089d   Thumb Code    36  llsshr.o(.text)
    _ll_sshift_r                             0x0800089d   Thumb Code     0  llsshr.o(.text)
    __strtod_int                             0x080008f7   Thumb Code    90  strtod.o(.text)
    __I$use$fp                               0x0800095d   Thumb Code     0  iusefp.o(.text)
    _float_round                             0x0800095d   Thumb Code    18  fepilogue.o(.text)
    _float_epilogue                          0x0800096f   Thumb Code    92  fepilogue.o(.text)
    _double_round                            0x080009cb   Thumb Code    30  depilogue.o(.text)
    _double_epilogue                         0x080009e9   Thumb Code   156  depilogue.o(.text)
    _drem                                    0x08000a85   Thumb Code   134  drem.o(.text)
    __aeabi_d2ulz                            0x08000b0b   Thumb Code    48  dfixul.o(.text)
    __scatterload                            0x08000b3d   Thumb Code    28  init.o(.text)
    __scatterload_rt2                        0x08000b3d   Thumb Code     0  init.o(.text)
    isspace                                  0x08000b61   Thumb Code    10  isspace_c.o(.text)
    _scanf_real                              0x08000c95   Thumb Code     0  scanf_fp.o(.text)
    _scanf_really_real                       0x08000c95   Thumb Code   556  scanf_fp.o(.text)
    _sgetc                                   0x08000ecd   Thumb Code    30  _sgetc.o(.text)
    _sbackspace                              0x08000eeb   Thumb Code    34  _sgetc.o(.text)
    __ARM_scalbn                             0x08000f0d   Thumb Code    46  dscalb.o(.text)
    scalbn                                   0x08000f0d   Thumb Code     0  dscalb.o(.text)
    __ctype_lookup                           0x08000f3d   Thumb Code    34  ctype_c.o(.text)
    __aeabi_ul2d                             0x08000f65   Thumb Code    24  dfltul.o(.text)
    BusFault_Handler                         0x08000f7d   Thumb Code     4  stm32f10x_it.o(i.BusFault_Handler)
    DebugMon_Handler                         0x08000fc5   Thumb Code     2  stm32f10x_it.o(i.DebugMon_Handler)
    GPIO_Init                                0x08000fc7   Thumb Code   278  stm32f10x_gpio.o(i.GPIO_Init)
    GPIO_PinRemapConfig                      0x080010dd   Thumb Code   138  stm32f10x_gpio.o(i.GPIO_PinRemapConfig)
    GPIO_ResetBits                           0x0800116d   Thumb Code     4  stm32f10x_gpio.o(i.GPIO_ResetBits)
    GPIO_SetBits                             0x08001171   Thumb Code     4  stm32f10x_gpio.o(i.GPIO_SetBits)
    HardFault_Handler                        0x08001175   Thumb Code     4  stm32f10x_it.o(i.HardFault_Handler)
    I2C_Cmd                                  0x08001179   Thumb Code    24  stm32f10x_i2c.o(i.I2C_Cmd)
    I2C_DeInit                               0x08001191   Thumb Code    50  stm32f10x_i2c.o(i.I2C_DeInit)
    I2C_GenerateSTOP                         0x080011c9   Thumb Code    24  stm32f10x_i2c.o(i.I2C_GenerateSTOP)
    I2C_Init                                 0x080011e1   Thumb Code   222  stm32f10x_i2c.o(i.I2C_Init)
    I2C_Init_                                0x080012cd   Thumb Code   110  iic.o(i.I2C_Init_)
    I2C_getRawCount                          0x08001349   Thumb Code   256  magneticsensor.o(i.I2C_getRawCount)
    LED_Init                                 0x08001449   Thumb Code    48  led.o(i.LED_Init)
    LPF_velocity                             0x0800147d   Thumb Code    74  lowpass_filter.o(i.LPF_velocity)
    MagneticSensor_Init                      0x080014dd   Thumb Code    32  magneticsensor.o(i.MagneticSensor_Init)
    MemManage_Handler                        0x08001511   Thumb Code     4  stm32f10x_it.o(i.MemManage_Handler)
    Motor_init                               0x08001515   Thumb Code    62  bldcmotor.o(i.Motor_init)
    Motor_initFOC                            0x08001589   Thumb Code    66  bldcmotor.o(i.Motor_initFOC)
    NMI_Handler                              0x080015dd   Thumb Code     2  stm32f10x_it.o(i.NMI_Handler)
    NVIC_Init                                0x080015e1   Thumb Code   100  misc.o(i.NVIC_Init)
    PID_angle                                0x08001651   Thumb Code   218  pid.o(i.PID_angle)
    PID_init                                 0x08001741   Thumb Code    54  pid.o(i.PID_init)
    PID_velocity                             0x08001795   Thumb Code   424  pid.o(i.PID_velocity)
    PendSV_Handler                           0x08001951   Thumb Code     2  stm32f10x_it.o(i.PendSV_Handler)
    RCC_APB1PeriphClockCmd                   0x08001955   Thumb Code    26  stm32f10x_rcc.o(i.RCC_APB1PeriphClockCmd)
    RCC_APB1PeriphResetCmd                   0x08001975   Thumb Code    26  stm32f10x_rcc.o(i.RCC_APB1PeriphResetCmd)
    RCC_APB2PeriphClockCmd                   0x08001995   Thumb Code    26  stm32f10x_rcc.o(i.RCC_APB2PeriphClockCmd)
    RCC_APB2PeriphResetCmd                   0x080019b5   Thumb Code    26  stm32f10x_rcc.o(i.RCC_APB2PeriphResetCmd)
    RCC_GetClocksFreq                        0x080019d5   Thumb Code   192  stm32f10x_rcc.o(i.RCC_GetClocksFreq)
    SVC_Handler                              0x08001aa9   Thumb Code     2  stm32f10x_it.o(i.SVC_Handler)
    SysTick_Handler                          0x08001b95   Thumb Code     2  stm32f10x_it.o(i.SysTick_Handler)
    SystemInit                               0x08001b99   Thumb Code    78  system_stm32f10x.o(i.SystemInit)
    TIM2_PWM_Init                            0x08001bf9   Thumb Code   186  timer.o(i.TIM2_PWM_Init)
    TIM3_1ms_Init                            0x08001cb9   Thumb Code    80  timer.o(i.TIM3_1ms_Init)
    TIM3_IRQHandler                          0x08001d0d   Thumb Code    44  stm32f10x_it.o(i.TIM3_IRQHandler)
    TIM_ARRPreloadConfig                     0x08001d45   Thumb Code    24  stm32f10x_tim.o(i.TIM_ARRPreloadConfig)
    TIM_ClearITPendingBit                    0x08001d5d   Thumb Code     6  stm32f10x_tim.o(i.TIM_ClearITPendingBit)
    TIM_Cmd                                  0x08001d63   Thumb Code    24  stm32f10x_tim.o(i.TIM_Cmd)
    TIM_DeInit                               0x08001d7d   Thumb Code   424  stm32f10x_tim.o(i.TIM_DeInit)
    TIM_GetITStatus                          0x08001f65   Thumb Code    34  stm32f10x_tim.o(i.TIM_GetITStatus)
    TIM_ITConfig                             0x08001f87   Thumb Code    18  stm32f10x_tim.o(i.TIM_ITConfig)
    TIM_OC1Init                              0x08001f99   Thumb Code   132  stm32f10x_tim.o(i.TIM_OC1Init)
    TIM_OC1PreloadConfig                     0x08002031   Thumb Code    18  stm32f10x_tim.o(i.TIM_OC1PreloadConfig)
    TIM_OC2Init                              0x08002045   Thumb Code   154  stm32f10x_tim.o(i.TIM_OC2Init)
    TIM_OC2PreloadConfig                     0x080020e9   Thumb Code    26  stm32f10x_tim.o(i.TIM_OC2PreloadConfig)
    TIM_OC3Init                              0x08002105   Thumb Code   150  stm32f10x_tim.o(i.TIM_OC3Init)
    TIM_OC3PreloadConfig                     0x080021a5   Thumb Code    18  stm32f10x_tim.o(i.TIM_OC3PreloadConfig)
    TIM_SetCompare1                          0x080021b7   Thumb Code     4  stm32f10x_tim.o(i.TIM_SetCompare1)
    TIM_SetCompare2                          0x080021bb   Thumb Code     4  stm32f10x_tim.o(i.TIM_SetCompare2)
    TIM_SetCompare3                          0x080021bf   Thumb Code     4  stm32f10x_tim.o(i.TIM_SetCompare3)
    TIM_TimeBaseInit                         0x080021c5   Thumb Code   122  stm32f10x_tim.o(i.TIM_TimeBaseInit)
    USART1_IRQHandler                        0x08002269   Thumb Code   136  usart.o(i.USART1_IRQHandler)
    USART_Cmd                                0x080022fd   Thumb Code    24  stm32f10x_usart.o(i.USART_Cmd)
    USART_GetITStatus                        0x08002315   Thumb Code    84  stm32f10x_usart.o(i.USART_GetITStatus)
    USART_ITConfig                           0x08002369   Thumb Code    74  stm32f10x_usart.o(i.USART_ITConfig)
    USART_Init                               0x080023b5   Thumb Code   210  stm32f10x_usart.o(i.USART_Init)
    USART_ReceiveData                        0x0800248d   Thumb Code    10  stm32f10x_usart.o(i.USART_ReceiveData)
    UsageFault_Handler                       0x08002497   Thumb Code     4  stm32f10x_it.o(i.UsageFault_Handler)
    Voltage_Init                             0x0800249d   Thumb Code    18  bldcmotor.o(i.Voltage_Init)
    __0printf                                0x080024bd   Thumb Code    22  printfa.o(i.__0printf)
    __1printf                                0x080024bd   Thumb Code     0  printfa.o(i.__0printf)
    __2printf                                0x080024bd   Thumb Code     0  printfa.o(i.__0printf)
    __c89printf                              0x080024bd   Thumb Code     0  printfa.o(i.__0printf)
    printf                                   0x080024bd   Thumb Code     0  printfa.o(i.__0printf)
    __ARM_fpclassify                         0x080024dd   Thumb Code    40  fpclassify.o(i.__ARM_fpclassify)
    __kernel_poly                            0x08002505   Thumb Code   170  poly.o(i.__kernel_poly)
    __mathlib_dbl_infnan                     0x080025af   Thumb Code     6  dunder.o(i.__mathlib_dbl_infnan)
    __mathlib_dbl_infnan2                    0x080025b5   Thumb Code     4  dunder.o(i.__mathlib_dbl_infnan2)
    __mathlib_dbl_invalid                    0x080025b9   Thumb Code    12  dunder.o(i.__mathlib_dbl_invalid)
    __mathlib_dbl_underflow                  0x080025c5   Thumb Code    10  dunder.o(i.__mathlib_dbl_underflow)
    __read_errno                             0x080025d5   Thumb Code     6  errno.o(i.__read_errno)
    __scatterload_copy                       0x080025e1   Thumb Code    14  handlers.o(i.__scatterload_copy)
    __scatterload_null                       0x080025ef   Thumb Code     2  handlers.o(i.__scatterload_null)
    __scatterload_zeroinit                   0x080025f1   Thumb Code    14  handlers.o(i.__scatterload_zeroinit)
    __set_errno                              0x08002601   Thumb Code     6  errno.o(i.__set_errno)
    _electricalAngle                         0x0800260d   Thumb Code    22  foc_utils.o(i._electricalAngle)
    _is_digit                                0x080027a9   Thumb Code    14  scanf_fp.o(i._is_digit)
    _normalizeAngle                          0x080027b9   Thumb Code    74  foc_utils.o(i._normalizeAngle)
    _sin                                     0x08002f15   Thumb Code   612  foc_utils.o(i._sin)
    _sqrtApprox                              0x080031ad   Thumb Code    26  foc_utils.o(i._sqrtApprox)
    alignSensor                              0x080031cd   Thumb Code   542  bldcmotor.o(i.alignSensor)
    angleOpenloop                            0x0800350d   Thumb Code   334  bldcmotor.o(i.angleOpenloop)
    atan                                     0x08003685   Thumb Code   474  atan.o(i.atan)
    atan2                                    0x080038a5   Thumb Code   374  atan2.o(i.atan2)
    atof                                     0x08003a41   Thumb Code    42  atof.o(i.atof)
    commander_run                            0x08003a6d   Thumb Code   130  main.o(i.commander_run)
    delay_ms                                 0x08003b25   Thumb Code    72  delay.o(i.delay_ms)
    electricalAngle                          0x08003b6d   Thumb Code    56  focmotor.o(i.electricalAngle)
    fmod                                     0x08003bb5   Thumb Code   144  fmod.o(i.fmod)
    fputc                                    0x08003c49   Thumb Code    24  usart.o(i.fputc)
    getAngle                                 0x08003c65   Thumb Code   214  magneticsensor.o(i.getAngle)
    getVelocity                              0x08003d61   Thumb Code   180  magneticsensor.o(i.getVelocity)
    loopFOC                                  0x08003e31   Thumb Code    86  bldcmotor.o(i.loopFOC)
    main                                     0x08003ec1   Thumb Code   170  main.o(i.main)
    move                                     0x08003fb1   Thumb Code   216  bldcmotor.o(i.move)
    setPhaseVoltage                          0x080040a5   Thumb Code  1012  bldcmotor.o(i.setPhaseVoltage)
    shaftAngle                               0x080044d1   Thumb Code    38  focmotor.o(i.shaftAngle)
    shaftVelocity                            0x08004501   Thumb Code    34  focmotor.o(i.shaftVelocity)
    systick_CountMode                        0x08004529   Thumb Code    18  delay.o(i.systick_CountMode)
    uart_init                                0x08004541   Thumb Code   152  usart.o(i.uart_init)
    velocityOpenloop                         0x080045e1   Thumb Code   210  bldcmotor.o(i.velocityOpenloop)
    sine_array                               0x080046d8   Data         800  foc_utils.o(.constdata)
    __mathlib_zero                           0x08004a90   Data           8  qnan.o(.constdata)
    __ctype_categories                       0x08004a98   Data          64  ctype_c.o(.constdata)
    Region$$Table$$Base                      0x08004ad8   Number         0  anon$$obj.o(Region$$Table)
    Region$$Table$$Limit                     0x08004af8   Number         0  anon$$obj.o(Region$$Table)
    __stdout                                 0x20000014   Data           4  usart.o(.data)
    USART_RX_STA                             0x20000018   Data           2  usart.o(.data)
    electrical_angle                         0x2000001c   Data           4  focmotor.o(.data)
    current_sp                               0x20000020   Data           4  focmotor.o(.data)
    voltage                                  0x20000024   Data           8  focmotor.o(.data)
    current                                  0x2000002c   Data           8  focmotor.o(.data)
    torque_controller                        0x20000034   Data           1  focmotor.o(.data)
    controller                               0x20000035   Data           1  focmotor.o(.data)
    sensor_offset                            0x20000038   Data           4  focmotor.o(.data)
    zero_electric_angle                      0x2000003c   Data           4  focmotor.o(.data)
    sensor_direction                         0x20000040   Data           4  bldcmotor.o(.data)
    pole_pairs                               0x20000044   Data           4  bldcmotor.o(.data)
    open_loop_timestamp                      0x20000048   Data           4  bldcmotor.o(.data)
    velocity_limit                           0x2000004c   Data           4  bldcmotor.o(.data)
    y_vel_prev                               0x20000050   Data           4  lowpass_filter.o(.data)
    cpr                                      0x20000054   Data           4  magneticsensor.o(.data)
    full_rotation_offset                     0x20000058   Data           4  magneticsensor.o(.data)
    angle_data_prev                          0x2000005c   Data           4  magneticsensor.o(.data)
    velocity_calc_timestamp                  0x20000060   Data           4  magneticsensor.o(.data)
    angle_prev                               0x20000064   Data           4  magneticsensor.o(.data)
    target                                   0x20000068   Data           4  main.o(.data)
    time1_cntr                               0x2000006c   Data           4  stm32f10x_it.o(.data)
    time2_cntr                               0x20000070   Data           4  stm32f10x_it.o(.data)
    USART_RX_BUF                             0x20000078   Data         256  usart.o(.bss)
    shaft                                    0x20000178   Data          16  focmotor.o(.bss)
    Voltage                                  0x20000188   Data          12  bldcmotor.o(.bss)
    velocityPID                              0x20000194   Data          44  pid.o(.bss)
    anglePID                                 0x200001c0   Data          44  pid.o(.bss)
    __initial_sp                             0x200005f0   Data           0  startup_stm32f10x_md.o(STACK)



==============================================================================

Memory Map of the image

  Image Entry point : 0x080000ed

  Load Region LR_IROM1 (Base: 0x08000000, Size: 0x00004b70, Max: 0x00010000, ABSOLUTE)

    Execution Region ER_IROM1 (Exec base: 0x08000000, Load base: 0x08000000, Size: 0x00004af8, Max: 0x00010000, ABSOLUTE)

    Exec Addr    Load Addr    Size         Type   Attr      Idx    E Section Name        Object

    0x08000000   0x08000000   0x000000ec   Data   RO          132    RESET               startup_stm32f10x_md.o
    0x080000ec   0x080000ec   0x00000000   Code   RO         3663  * .ARM.Collect$$$$00000000  mc_w.l(entry.o)
    0x080000ec   0x080000ec   0x00000004   Code   RO         3992    .ARM.Collect$$$$00000001  mc_w.l(entry2.o)
    0x080000f0   0x080000f0   0x00000004   Code   RO         3995    .ARM.Collect$$$$00000004  mc_w.l(entry5.o)
    0x080000f4   0x080000f4   0x00000000   Code   RO         3997    .ARM.Collect$$$$00000008  mc_w.l(entry7b.o)
    0x080000f4   0x080000f4   0x00000000   Code   RO         3999    .ARM.Collect$$$$0000000A  mc_w.l(entry8b.o)
    0x080000f4   0x080000f4   0x00000008   Code   RO         4000    .ARM.Collect$$$$0000000B  mc_w.l(entry9a.o)
    0x080000fc   0x080000fc   0x00000004   Code   RO         4007    .ARM.Collect$$$$0000000E  mc_w.l(entry12b.o)
    0x08000100   0x08000100   0x00000000   Code   RO         4002    .ARM.Collect$$$$0000000F  mc_w.l(entry10a.o)
    0x08000100   0x08000100   0x00000000   Code   RO         4004    .ARM.Collect$$$$00000011  mc_w.l(entry11a.o)
    0x08000100   0x08000100   0x00000004   Code   RO         3993    .ARM.Collect$$$$00002712  mc_w.l(entry2.o)
    0x08000104   0x08000104   0x00000024   Code   RO          133    .text               startup_stm32f10x_md.o
    0x08000128   0x08000128   0x000000b0   Code   RO         3927    .text               mf_w.l(fadd.o)
    0x080001d8   0x080001d8   0x00000064   Code   RO         3929    .text               mf_w.l(fmul.o)
    0x0800023c   0x0800023c   0x0000007c   Code   RO         3931    .text               mf_w.l(fdiv.o)
    0x080002b8   0x080002b8   0x0000014e   Code   RO         3933    .text               mf_w.l(dadd.o)
    0x08000406   0x08000406   0x000000e4   Code   RO         3935    .text               mf_w.l(dmul.o)
    0x080004ea   0x080004ea   0x000000de   Code   RO         3937    .text               mf_w.l(ddiv.o)
    0x080005c8   0x080005c8   0x00000012   Code   RO         3939    .text               mf_w.l(fflti.o)
    0x080005da   0x080005da   0x0000000a   Code   RO         3941    .text               mf_w.l(ffltui.o)
    0x080005e4   0x080005e4   0x00000022   Code   RO         3943    .text               mf_w.l(dflti.o)
    0x08000606   0x08000606   0x0000001a   Code   RO         3945    .text               mf_w.l(dfltui.o)
    0x08000620   0x08000620   0x00000032   Code   RO         3947    .text               mf_w.l(ffixi.o)
    0x08000652   0x08000652   0x00000028   Code   RO         3949    .text               mf_w.l(ffixui.o)
    0x0800067a   0x0800067a   0x0000003e   Code   RO         3951    .text               mf_w.l(dfixi.o)
    0x080006b8   0x080006b8   0x00000032   Code   RO         3953    .text               mf_w.l(dfixui.o)
    0x080006ea   0x080006ea   0x00000026   Code   RO         3955    .text               mf_w.l(f2d.o)
    0x08000710   0x08000710   0x00000030   Code   RO         3957    .text               mf_w.l(cdcmple.o)
    0x08000740   0x08000740   0x00000030   Code   RO         3959    .text               mf_w.l(cdrcmple.o)
    0x08000770   0x08000770   0x00000038   Code   RO         3961    .text               mf_w.l(d2f.o)
    0x080007a8   0x080007a8   0x00000014   Code   RO         3963    .text               mf_w.l(cfcmple.o)
    0x080007bc   0x080007bc   0x00000014   Code   RO         3965    .text               mf_w.l(cfrcmple.o)
    0x080007d0   0x080007d0   0x0000002c   Code   RO         4008    .text               mc_w.l(uidiv.o)
    0x080007fc   0x080007fc   0x00000062   Code   RO         4010    .text               mc_w.l(uldiv.o)
    0x0800085e   0x0800085e   0x0000001e   Code   RO         4012    .text               mc_w.l(llshl.o)
    0x0800087c   0x0800087c   0x00000020   Code   RO         4014    .text               mc_w.l(llushr.o)
    0x0800089c   0x0800089c   0x00000024   Code   RO         4016    .text               mc_w.l(llsshr.o)
    0x080008c0   0x080008c0   0x0000009c   Code   RO         4025    .text               mc_w.l(strtod.o)
    0x0800095c   0x0800095c   0x00000000   Code   RO         4027    .text               mc_w.l(iusefp.o)
    0x0800095c   0x0800095c   0x0000006e   Code   RO         4028    .text               mf_w.l(fepilogue.o)
    0x080009ca   0x080009ca   0x000000ba   Code   RO         4030    .text               mf_w.l(depilogue.o)
    0x08000a84   0x08000a84   0x00000086   Code   RO         4032    .text               mf_w.l(drem.o)
    0x08000b0a   0x08000b0a   0x00000030   Code   RO         4034    .text               mf_w.l(dfixul.o)
    0x08000b3a   0x08000b3a   0x00000002   PAD
    0x08000b3c   0x08000b3c   0x00000024   Code   RO         4040    .text               mc_w.l(init.o)
    0x08000b60   0x08000b60   0x0000000a   Code   RO         4042    .text               mc_w.l(isspace_c.o)
    0x08000b6a   0x08000b6a   0x00000002   PAD
    0x08000b6c   0x08000b6c   0x00000360   Code   RO         4044    .text               mc_w.l(scanf_fp.o)
    0x08000ecc   0x08000ecc   0x00000040   Code   RO         4048    .text               mc_w.l(_sgetc.o)
    0x08000f0c   0x08000f0c   0x0000002e   Code   RO         4050    .text               mf_w.l(dscalb.o)
    0x08000f3a   0x08000f3a   0x00000002   PAD
    0x08000f3c   0x08000f3c   0x00000028   Code   RO         4052    .text               mc_w.l(ctype_c.o)
    0x08000f64   0x08000f64   0x00000018   Code   RO         4055    .text               mf_w.l(dfltul.o)
    0x08000f7c   0x08000f7c   0x00000004   Code   RO         3571    i.BusFault_Handler  stm32f10x_it.o
    0x08000f80   0x08000f80   0x00000044   Code   RO         3372    i.DRV8313_EN_Init   bldcmotor.o
    0x08000fc4   0x08000fc4   0x00000002   Code   RO         3572    i.DebugMon_Handler  stm32f10x_it.o
    0x08000fc6   0x08000fc6   0x00000116   Code   RO         1311    i.GPIO_Init         stm32f10x_gpio.o
    0x080010dc   0x080010dc   0x00000090   Code   RO         1313    i.GPIO_PinRemapConfig  stm32f10x_gpio.o
    0x0800116c   0x0800116c   0x00000004   Code   RO         1318    i.GPIO_ResetBits    stm32f10x_gpio.o
    0x08001170   0x08001170   0x00000004   Code   RO         1319    i.GPIO_SetBits      stm32f10x_gpio.o
    0x08001174   0x08001174   0x00000004   Code   RO         3573    i.HardFault_Handler  stm32f10x_it.o
    0x08001178   0x08001178   0x00000018   Code   RO         1425    i.I2C_Cmd           stm32f10x_i2c.o
    0x08001190   0x08001190   0x00000038   Code   RO         1428    i.I2C_DeInit        stm32f10x_i2c.o
    0x080011c8   0x080011c8   0x00000018   Code   RO         1433    i.I2C_GenerateSTOP  stm32f10x_i2c.o
    0x080011e0   0x080011e0   0x000000ec   Code   RO         1439    i.I2C_Init          stm32f10x_i2c.o
    0x080012cc   0x080012cc   0x0000007c   Code   RO         3216    i.I2C_Init_         iic.o
    0x08001348   0x08001348   0x00000100   Code   RO         3493    i.I2C_getRawCount   magneticsensor.o
    0x08001448   0x08001448   0x00000034   Code   RO         3232    i.LED_Init          led.o
    0x0800147c   0x0800147c   0x00000060   Code   RO         3475    i.LPF_velocity      lowpass_filter.o
    0x080014dc   0x080014dc   0x00000034   Code   RO         3494    i.MagneticSensor_Init  magneticsensor.o
    0x08001510   0x08001510   0x00000004   Code   RO         3574    i.MemManage_Handler  stm32f10x_it.o
    0x08001514   0x08001514   0x00000074   Code   RO         3373    i.Motor_init        bldcmotor.o
    0x08001588   0x08001588   0x00000054   Code   RO         3374    i.Motor_initFOC     bldcmotor.o
    0x080015dc   0x080015dc   0x00000002   Code   RO         3575    i.NMI_Handler       stm32f10x_it.o
    0x080015de   0x080015de   0x00000002   PAD
    0x080015e0   0x080015e0   0x00000070   Code   RO          137    i.NVIC_Init         misc.o
    0x08001650   0x08001650   0x000000f0   Code   RO         3445    i.PID_angle         pid.o
    0x08001740   0x08001740   0x00000054   Code   RO         3446    i.PID_init          pid.o
    0x08001794   0x08001794   0x000001bc   Code   RO         3447    i.PID_velocity      pid.o
    0x08001950   0x08001950   0x00000002   Code   RO         3576    i.PendSV_Handler    stm32f10x_it.o
    0x08001952   0x08001952   0x00000002   PAD
    0x08001954   0x08001954   0x00000020   Code   RO         1727    i.RCC_APB1PeriphClockCmd  stm32f10x_rcc.o
    0x08001974   0x08001974   0x00000020   Code   RO         1728    i.RCC_APB1PeriphResetCmd  stm32f10x_rcc.o
    0x08001994   0x08001994   0x00000020   Code   RO         1729    i.RCC_APB2PeriphClockCmd  stm32f10x_rcc.o
    0x080019b4   0x080019b4   0x00000020   Code   RO         1730    i.RCC_APB2PeriphResetCmd  stm32f10x_rcc.o
    0x080019d4   0x080019d4   0x000000d4   Code   RO         1737    i.RCC_GetClocksFreq  stm32f10x_rcc.o
    0x08001aa8   0x08001aa8   0x00000002   Code   RO         3577    i.SVC_Handler       stm32f10x_it.o
    0x08001aaa   0x08001aaa   0x00000008   Code   RO           17    i.SetSysClock       system_stm32f10x.o
    0x08001ab2   0x08001ab2   0x00000002   PAD
    0x08001ab4   0x08001ab4   0x000000e0   Code   RO           18    i.SetSysClockTo72   system_stm32f10x.o
    0x08001b94   0x08001b94   0x00000002   Code   RO         3578    i.SysTick_Handler   stm32f10x_it.o
    0x08001b96   0x08001b96   0x00000002   PAD
    0x08001b98   0x08001b98   0x00000060   Code   RO           20    i.SystemInit        system_stm32f10x.o
    0x08001bf8   0x08001bf8   0x000000c0   Code   RO         3127    i.TIM2_PWM_Init     timer.o
    0x08001cb8   0x08001cb8   0x00000054   Code   RO         3128    i.TIM3_1ms_Init     timer.o
    0x08001d0c   0x08001d0c   0x00000038   Code   RO         3579    i.TIM3_IRQHandler   stm32f10x_it.o
    0x08001d44   0x08001d44   0x00000018   Code   RO         2349    i.TIM_ARRPreloadConfig  stm32f10x_tim.o
    0x08001d5c   0x08001d5c   0x00000006   Code   RO         2356    i.TIM_ClearITPendingBit  stm32f10x_tim.o
    0x08001d62   0x08001d62   0x00000018   Code   RO         2361    i.TIM_Cmd           stm32f10x_tim.o
    0x08001d7a   0x08001d7a   0x00000002   PAD
    0x08001d7c   0x08001d7c   0x000001e8   Code   RO         2366    i.TIM_DeInit        stm32f10x_tim.o
    0x08001f64   0x08001f64   0x00000022   Code   RO         2382    i.TIM_GetITStatus   stm32f10x_tim.o
    0x08001f86   0x08001f86   0x00000012   Code   RO         2386    i.TIM_ITConfig      stm32f10x_tim.o
    0x08001f98   0x08001f98   0x00000098   Code   RO         2390    i.TIM_OC1Init       stm32f10x_tim.o
    0x08002030   0x08002030   0x00000012   Code   RO         2393    i.TIM_OC1PreloadConfig  stm32f10x_tim.o
    0x08002042   0x08002042   0x00000002   PAD
    0x08002044   0x08002044   0x000000a4   Code   RO         2395    i.TIM_OC2Init       stm32f10x_tim.o
    0x080020e8   0x080020e8   0x0000001a   Code   RO         2398    i.TIM_OC2PreloadConfig  stm32f10x_tim.o
    0x08002102   0x08002102   0x00000002   PAD
    0x08002104   0x08002104   0x000000a0   Code   RO         2400    i.TIM_OC3Init       stm32f10x_tim.o
    0x080021a4   0x080021a4   0x00000012   Code   RO         2403    i.TIM_OC3PreloadConfig  stm32f10x_tim.o
    0x080021b6   0x080021b6   0x00000004   Code   RO         2422    i.TIM_SetCompare1   stm32f10x_tim.o
    0x080021ba   0x080021ba   0x00000004   Code   RO         2423    i.TIM_SetCompare2   stm32f10x_tim.o
    0x080021be   0x080021be   0x00000004   Code   RO         2424    i.TIM_SetCompare3   stm32f10x_tim.o
    0x080021c2   0x080021c2   0x00000002   PAD
    0x080021c4   0x080021c4   0x000000a4   Code   RO         2432    i.TIM_TimeBaseInit  stm32f10x_tim.o
    0x08002268   0x08002268   0x00000094   Code   RO         3175    i.USART1_IRQHandler  usart.o
    0x080022fc   0x080022fc   0x00000018   Code   RO         2897    i.USART_Cmd         stm32f10x_usart.o
    0x08002314   0x08002314   0x00000054   Code   RO         2901    i.USART_GetITStatus  stm32f10x_usart.o
    0x08002368   0x08002368   0x0000004a   Code   RO         2903    i.USART_ITConfig    stm32f10x_usart.o
    0x080023b2   0x080023b2   0x00000002   PAD
    0x080023b4   0x080023b4   0x000000d8   Code   RO         2904    i.USART_Init        stm32f10x_usart.o
    0x0800248c   0x0800248c   0x0000000a   Code   RO         2911    i.USART_ReceiveData  stm32f10x_usart.o
    0x08002496   0x08002496   0x00000004   Code   RO         3580    i.UsageFault_Handler  stm32f10x_it.o
    0x0800249a   0x0800249a   0x00000002   PAD
    0x0800249c   0x0800249c   0x00000020   Code   RO         3375    i.Voltage_Init      bldcmotor.o
    0x080024bc   0x080024bc   0x00000020   Code   RO         3899    i.__0printf         mc_w.l(printfa.o)
    0x080024dc   0x080024dc   0x00000028   Code   RO         4036    i.__ARM_fpclassify  m_ws.l(fpclassify.o)
    0x08002504   0x08002504   0x000000aa   Code   RO         4038    i.__kernel_poly     m_ws.l(poly.o)
    0x080025ae   0x080025ae   0x00000006   Code   RO         3978    i.__mathlib_dbl_infnan  m_ws.l(dunder.o)
    0x080025b4   0x080025b4   0x00000004   Code   RO         3979    i.__mathlib_dbl_infnan2  m_ws.l(dunder.o)
    0x080025b8   0x080025b8   0x0000000c   Code   RO         3980    i.__mathlib_dbl_invalid  m_ws.l(dunder.o)
    0x080025c4   0x080025c4   0x00000010   Code   RO         3983    i.__mathlib_dbl_underflow  m_ws.l(dunder.o)
    0x080025d4   0x080025d4   0x0000000c   Code   RO         4019    i.__read_errno      mc_w.l(errno.o)
    0x080025e0   0x080025e0   0x0000000e   Code   RO         4059    i.__scatterload_copy  mc_w.l(handlers.o)
    0x080025ee   0x080025ee   0x00000002   Code   RO         4060    i.__scatterload_null  mc_w.l(handlers.o)
    0x080025f0   0x080025f0   0x0000000e   Code   RO         4061    i.__scatterload_zeroinit  mc_w.l(handlers.o)
    0x080025fe   0x080025fe   0x00000002   PAD
    0x08002600   0x08002600   0x0000000c   Code   RO         4020    i.__set_errno       mc_w.l(errno.o)
    0x0800260c   0x0800260c   0x00000016   Code   RO         3253    i._electricalAngle  foc_utils.o
    0x08002622   0x08002622   0x00000002   PAD
    0x08002624   0x08002624   0x00000184   Code   RO         3906    i._fp_digits        mc_w.l(printfa.o)
    0x080027a8   0x080027a8   0x0000000e   Code   RO         4046    i._is_digit         mc_w.l(scanf_fp.o)
    0x080027b6   0x080027b6   0x00000002   PAD
    0x080027b8   0x080027b8   0x00000054   Code   RO         3254    i._normalizeAngle   foc_utils.o
    0x0800280c   0x0800280c   0x000006b4   Code   RO         3907    i._printf_core      mc_w.l(printfa.o)
    0x08002ec0   0x08002ec0   0x00000024   Code   RO         3908    i._printf_post_padding  mc_w.l(printfa.o)
    0x08002ee4   0x08002ee4   0x0000002e   Code   RO         3909    i._printf_pre_padding  mc_w.l(printfa.o)
    0x08002f12   0x08002f12   0x00000002   PAD
    0x08002f14   0x08002f14   0x00000298   Code   RO         3255    i._sin              foc_utils.o
    0x080031ac   0x080031ac   0x00000020   Code   RO         3256    i._sqrtApprox       foc_utils.o
    0x080031cc   0x080031cc   0x00000340   Code   RO         3376    i.alignSensor       bldcmotor.o
    0x0800350c   0x0800350c   0x00000178   Code   RO         3377    i.angleOpenloop     bldcmotor.o
    0x08003684   0x08003684   0x00000220   Code   RO         3968    i.atan              m_ws.l(atan.o)
    0x080038a4   0x080038a4   0x0000019c   Code   RO         3644    i.atan2             m_ws.l(atan2.o)
    0x08003a40   0x08003a40   0x0000002a   Code   RO         3652    i.atof              m_ws.l(atof.o)
    0x08003a6a   0x08003a6a   0x00000002   PAD
    0x08003a6c   0x08003a6c   0x000000b8   Code   RO         3533    i.commander_run     main.o
    0x08003b24   0x08003b24   0x00000048   Code   RO         3148    i.delay_ms          delay.o
    0x08003b6c   0x08003b6c   0x00000048   Code   RO         3341    i.electricalAngle   focmotor.o
    0x08003bb4   0x08003bb4   0x00000094   Code   RO         3656    i.fmod              m_ws.l(fmod.o)
    0x08003c48   0x08003c48   0x0000001c   Code   RO         3177    i.fputc             usart.o
    0x08003c64   0x08003c64   0x000000fc   Code   RO         3495    i.getAngle          magneticsensor.o
    0x08003d60   0x08003d60   0x000000d0   Code   RO         3496    i.getVelocity       magneticsensor.o
    0x08003e30   0x08003e30   0x00000090   Code   RO         3378    i.loopFOC           bldcmotor.o
    0x08003ec0   0x08003ec0   0x000000f0   Code   RO         3534    i.main              main.o
    0x08003fb0   0x08003fb0   0x000000f4   Code   RO         3379    i.move              bldcmotor.o
    0x080040a4   0x080040a4   0x0000042c   Code   RO         3380    i.setPhaseVoltage   bldcmotor.o
    0x080044d0   0x080044d0   0x00000030   Code   RO         3342    i.shaftAngle        focmotor.o
    0x08004500   0x08004500   0x00000028   Code   RO         3343    i.shaftVelocity     focmotor.o
    0x08004528   0x08004528   0x00000018   Code   RO         3150    i.systick_CountMode  delay.o
    0x08004540   0x08004540   0x000000a0   Code   RO         3178    i.uart_init         usart.o
    0x080045e0   0x080045e0   0x000000f8   Code   RO         3381    i.velocityOpenloop  bldcmotor.o
    0x080046d8   0x080046d8   0x00000320   Data   RO         3257    .constdata          foc_utils.o
    0x080049f8   0x080049f8   0x00000098   Data   RO         3969    .constdata          m_ws.l(atan.o)
    0x08004a90   0x08004a90   0x00000008   Data   RO         3991    .constdata          m_ws.l(qnan.o)
    0x08004a98   0x08004a98   0x00000040   Data   RO         4053    .constdata          mc_w.l(ctype_c.o)
    0x08004ad8   0x08004ad8   0x00000020   Data   RO         4057    Region$$Table       anon$$obj.o


    Execution Region RW_IRAM1 (Exec base: 0x20000000, Load base: 0x08004af8, Size: 0x000005f0, Max: 0x00005000, ABSOLUTE)

    Exec Addr    Load Addr    Size         Type   Attr      Idx    E Section Name        Object

    0x20000000   0x08004af8   0x00000014   Data   RW         1757    .data               stm32f10x_rcc.o
    0x20000014   0x08004b0c   0x00000006   Data   RW         3180    .data               usart.o
    0x2000001a   0x08004b12   0x00000002   PAD
    0x2000001c   0x08004b14   0x00000024   Data   RW         3345    .data               focmotor.o
    0x20000040   0x08004b38   0x00000010   Data   RW         3383    .data               bldcmotor.o
    0x20000050   0x08004b48   0x00000004   Data   RW         3476    .data               lowpass_filter.o
    0x20000054   0x08004b4c   0x00000014   Data   RW         3497    .data               magneticsensor.o
    0x20000068   0x08004b60   0x00000004   Data   RW         3535    .data               main.o
    0x2000006c   0x08004b64   0x00000008   Data   RW         3581    .data               stm32f10x_it.o
    0x20000074   0x08004b6c   0x00000004   Data   RW         4021    .data               mc_w.l(errno.o)
    0x20000078        -       0x00000100   Zero   RW         3179    .bss                usart.o
    0x20000178        -       0x00000010   Zero   RW         3344    .bss                focmotor.o
    0x20000188        -       0x0000000c   Zero   RW         3382    .bss                bldcmotor.o
    0x20000194        -       0x00000058   Zero   RW         3448    .bss                pid.o
    0x200001ec   0x08004b70   0x00000004   PAD
    0x200001f0        -       0x00000400   Zero   RW          130    STACK               startup_stm32f10x_md.o


==============================================================================

Image component sizes


      Code (inc. data)   RO Data    RW Data    ZI Data      Debug   Object Name

      3212        622          0         16         12       7149   bldcmotor.o
         0          0          0          0          0       4584   core_cm3.o
        96          6          0          0          0        939   delay.o
       802         68        800          0          0       3787   foc_utils.o
       160         32          0         36         16       2594   focmotor.o
       124         14          0          0          0        556   iic.o
        52          4          0          0          0        459   led.o
        96         22          0          4          0        780   lowpass_filter.o
       768         86          0         20          0       3355   magneticsensor.o
       424        124          0          4          0       1236   main.o
       112         12          0          0          0     204224   misc.o
       768         72          0          0         88       3009   pid.o
        36          8        236          0       1024        780   startup_stm32f10x_md.o
       430          6          0          0          0       3626   stm32f10x_gpio.o
       340         20          0          0          0       3825   stm32f10x_i2c.o
        82         12          0          8          0       4368   stm32f10x_it.o
       340         44          0         20          0       5260   stm32f10x_rcc.o
      1308        146          0          0          0       9643   stm32f10x_tim.o
       408          6          0          0          0       4710   stm32f10x_usart.o
       328         28          0          0          0      53089   system_stm32f10x.o
       276         10          0          0          0       1164   timer.o
       336         24          0          6        256       3572   usart.o

    ----------------------------------------------------------------------
     10520       1366       1068        116       1400     322709   Object Totals
         0          0         32          0          0          0   (incl. Generated)
        22          0          0          2          4          0   (incl. Padding)

    ----------------------------------------------------------------------

      Code (inc. data)   RO Data    RW Data    ZI Data      Debug   Library Member Name

       544         70        152          0          0        124   atan.o
       412         38          0          0          0        144   atan2.o
        42          0          0          0          0         84   atof.o
        38          6          0          0          0        272   dunder.o
       148          4          0          0          0         88   fmod.o
        40          0          0          0          0         68   fpclassify.o
       170          0          0          0          0         96   poly.o
         0          0          8          0          0          0   qnan.o
        64          0          0          0          0         84   _sgetc.o
        40          6         64          0          0         68   ctype_c.o
         0          0          0          0          0          0   entry.o
         0          0          0          0          0          0   entry10a.o
         0          0          0          0          0          0   entry11a.o
         4          0          0          0          0          0   entry12b.o
         8          4          0          0          0          0   entry2.o
         4          0          0          0          0          0   entry5.o
         0          0          0          0          0          0   entry7b.o
         0          0          0          0          0          0   entry8b.o
         8          4          0          0          0          0   entry9a.o
        24         12          0          4          0        136   errno.o
        30          0          0          0          0          0   handlers.o
        36          8          0          0          0         68   init.o
        10          0          0          0          0         68   isspace_c.o
         0          0          0          0          0          0   iusefp.o
        30          0          0          0          0         68   llshl.o
        36          0          0          0          0         68   llsshr.o
        32          0          0          0          0         68   llushr.o
      2218         90          0          0          0        464   printfa.o
       878         12          0          0          0        216   scanf_fp.o
       156         12          0          0          0        120   strtod.o
        44          0          0          0          0         80   uidiv.o
        98          0          0          0          0         92   uldiv.o
        48          0          0          0          0         68   cdcmple.o
        48          0          0          0          0         68   cdrcmple.o
        20          0          0          0          0         68   cfcmple.o
        20          0          0          0          0         68   cfrcmple.o
        56          0          0          0          0         88   d2f.o
       334          0          0          0          0        148   dadd.o
       222          0          0          0          0        100   ddiv.o
       186          0          0          0          0        176   depilogue.o
        62          0          0          0          0         80   dfixi.o
        50          0          0          0          0         76   dfixui.o
        48          0          0          0          0         68   dfixul.o
        34          0          0          0          0         76   dflti.o
        26          0          0          0          0         76   dfltui.o
        24          0          0          0          0         76   dfltul.o
       228          0          0          0          0         96   dmul.o
       134          0          0          0          0         96   drem.o
        46          0          0          0          0         80   dscalb.o
        38          0          0          0          0         68   f2d.o
       176          0          0          0          0        140   fadd.o
       124          0          0          0          0         88   fdiv.o
       110          0          0          0          0        168   fepilogue.o
        50          0          0          0          0         68   ffixi.o
        40          0          0          0          0         68   ffixui.o
        18          0          0          0          0         68   fflti.o
        10          0          0          0          0         68   ffltui.o
       100          0          0          0          0         76   fmul.o

    ----------------------------------------------------------------------
      7380        266        224          4          0       4796   Library Totals
        14          0          0          0          0          0   (incl. Padding)

    ----------------------------------------------------------------------

      Code (inc. data)   RO Data    RW Data    ZI Data      Debug   Library Name

      1394        118        160          0          0        876   m_ws.l
      3720        148         64          4          0       1600   mc_w.l
      2252          0          0          0          0       2320   mf_w.l

    ----------------------------------------------------------------------
      7380        266        224          4          0       4796   Library Totals

    ----------------------------------------------------------------------

==============================================================================


      Code (inc. data)   RO Data    RW Data    ZI Data      Debug   

     17900       1632       1292        120       1400     320793   Grand Totals
     17900       1632       1292        120       1400     320793   ELF Image Totals
     17900       1632       1292        120          0          0   ROM Totals

==============================================================================

    Total RO  Size (Code + RO Data)                19192 (  18.74kB)
    Total RW  Size (RW Data + ZI Data)              1520 (   1.48kB)
    Total ROM Size (Code + RO Data + RW Data)      19312 (  18.86kB)

==============================================================================

